:100000000C9421010C94B0210C94E1210C94122247
:100010000C9443220C9474220C94A5220C94D622A6
:100020000C9407230C944C010C944C010C944C013F
:100030000C944C010C944C010C944C010C944C010C
:100040000C944C010C944C010C944C010C944C01FC
:100050000C944C010C944C010C944C010C943823DE
:100060000C944C010C947D250C944C010C944C0187
:100070000C944C010C944C010C944C010C944C01CC
:100080000C944C010C944C010C944C010C944C01BC
:100090000C94BE250C944C010C944C010C944C0116
:1000A0000C944C010C944C010C944C010C944C019C
:1000B0000C944C010C944C010C944C010C944C018C
:1000C0000C944C010C944C010C944C010C94FF25A5
:1000D0000C944C010C944C010C9440260C944C0153
:1000E0000C944C0100002100240027002A002D0060
:1000F0003000330001010000040107010A01000083
:100100002200250028002B002E00310034000201BF
:100110000000050108010B0100002000230026005B
:1001200029002C002F00320000010000030106010D
:10013000090105050505070508080808020202026D
:100140000A0A080804040404010101010101010173
:100150000303030303030303040707070C0C0C0C3E
:100160000C0C0C0C02020202060606060606060627
:100170000B0B0B0B0B0B0B0B0102102020080810B4
:100180002040102040800201020108040201010207
:1001900004081020408080402010080402018004E0
:1001A000020180402010080402010804020101023B
:1001B0000408102040800102040810204080000044
:1001C000090A02080B0C0D070603040100000000D9
:1001D000000000000000000000000000000000001F
:1001E00000000000000000000000100F0E000000E2
:1001F00000000000000000000000000000000000FF
:1002000000000000494E46494E4954594E414ECDDA
:10021000CCCC3D0AD7233C17B7D13877CC2B3295BD
:1002200095E6241FB14F0A000020410000C842009B
:10023000401C4620BCBE4CCA1B0E5AAEC59D740065
:10024000EF2711241FBECFEFD1E2DEBFCDBF15E0F7
:10025000A0E0B2E0E2E3FDE500E00BBF02C00790E2
:100260000D92A03DB107D9F71BBE18E0A0EDB5E097
:1002700001C01D92A33AB107E1F712E0C2E4D2E057
:1002800004C02297FE010E94512EC034D107C9F745
:100290000E94BF280C94972E0C940000CF93DF93FC
:1002A000BC018230910510F462E070E0A0919F08DB
:1002B000B091A008ED01E0E0F0E040E050E021C0A6
:1002C000888199818617970769F48A819B81309785
:1002D00019F09383828304C09093A00880939F08B1
:1002E000FE0134C06817790738F44115510519F03B
:1002F0008417950708F4AC01FE018A819B819C015B
:10030000E9012097E9F641155105A9F1CA01861BBB
:10031000970B049708F4BA01E0E0F0E02AC08D9151
:100320009C91119784179507F9F46417750781F468
:1003300012968D919C911397309719F09383828335
:1003400004C09093A00880939F08FD0132964CC092
:10035000CA01861B970BFD01E80FF91F619371938A
:1003600002978D939C9340C0FD01828193819C01F3
:10037000D9011097A1F680919D0890919E08892B34
:1003800041F4809146059091470590939E08809393
:100390009D0840914805509149054115510541F48A
:1003A0004DB75EB78091440590914505481B590BA8
:1003B00020919D0830919E08CA01821B930B8617DD
:1003C000970780F0AB014E5F5F4F8417950750F0A1
:1003D000420F531F50939E0840939D08F90161936B
:1003E000719302C0E0E0F0E0CF01DF91CF9108957A
:1003F000CF93DF93009709F450C0EC0122971B8242
:100400001A82A0919F08B091A008109709F140E0CE
:1004100050E0AC17BD0708F1BB83AA83FE01219110
:100420003191E20FF31FAE17BF0779F48D919C91C4
:100430001197280F391F2E5F3F4F3983288312965B
:100440008D919C9113979B838A834115510571F47B
:10045000D093A008C0939F0820C012968D919C91C4
:100460001397AD01009711F0DC01D3CFFA01D383CC
:10047000C28321913191E20FF31FCE17DF0769F498
:1004800088819981280F391F2E5F3F4FFA013183F0
:1004900020838A819B8193838283DF91CF9108950A
:1004A000662777270C949402FB01DC010D90002055
:1004B000E9F7119701900D920020E1F70895FC01F2
:1004C0008191861721F08823D9F7992708953197CC
:1004D000CF010895FB01DC018D910190801901107D
:1004E000D9F3990B0895FB01DC0101900D920020D6
:1004F000E1F70895FB01DC014150504048F00190C4
:100500000D920020C9F701C01D9241505040E0F704
:100510000895FC0181E090E00190061609F4CF01F6
:100520000020D1F701970895A0E0B0E0EAE9F2E0F9
:100530000C94662EEC015B016115710519F0FB014D
:1005400091838083F9908F2D90E00E94552E892B06
:10055000C9F7FDE2FF1621F4F990EE24E39405C0FB
:100560002BE2F21609F4F990EE248E0101501040AE
:10057000C80164E072E043E050E00E94F403892B7C
:1005800001F58E010E5F1F4FC80167E072E045E084
:1005900050E00E94F403892B19F48E01095F1F4F6C
:1005A000A114B10419F0F50111830083E0FC04C02B
:1005B00070E090E080E814C070E090E080E86FEFB9
:1005C00008C1C8016CE072E043E050E00E94F4030F
:1005D000892B69F4A114B10429F470E090E080EC57
:1005E0006FE7F7C02296F501D183C083F6CF882448
:1005F000992440E050E060E070E0EF2DE053EA30F5
:10060000A0F5F2E0EF2A8E2D90E09C01287030706A
:10061000E2FE06C0232B79F50894811C911C2BC0A7
:10062000232B19F0089481089108DB01CA0112E01C
:10063000880F991FAA1FBB1F1A95D1F7480F591F82
:100640006A1F7B1F440F551F661F771F4E0F511DDA
:10065000611D711D483929E9520729E9620729E11D
:10066000720748F084E0E82A06C0EE3F31F4E3FC6C
:1006700039C098E0E92AF990C0CFE53311F0E531AF
:1006800089F529912D3219F4E0E1EE2A05C02B32CB
:1006900019F081E090E003C0299182E090E0E22F20
:1006A000E053EA3018F0C81BD90B1CC020E030E042
:1006B000FCE020383F075CF4C901880F991F880FC0
:1006C000991F280F391F220F331F2E0F311DE9915B
:1006D000E053EA3068F3E4FE03C0309521953F4FC4
:1006E000820E931ECE2CDD24E1FE07C0A114B104BE
:1006F00021F02197F501D183C083CB01BA010E947B
:10070000B32C7B018C01F3E0CF22DD2423E0C21661
:10071000D10421F417FB109517F9109557016801C2
:10072000C801B70120E030E040E050E00E941B2CFF
:10073000882309F44AC097FE0DC023E2E22E22E08E
:10074000F22E9094819491089394C0E2D0E000E05E
:1007500010E012C09BE3E92E92E0F92EF6CFF701EC
:100760002591359145915491C601B5010E94692D9D
:100770005B016C018C1A9D0A8C169D0684F7D59539
:10078000C7950F5F1F4F0630110529F08CEF9FEFC3
:10079000E80EF91EF1CFC501D6017C018D018C2D2B
:1007A000880F8D2D881F8F3F51F0C601B50120E0C5
:1007B00030E040E050E00E941B2C882331F482E2BC
:1007C00090E09093A2088093A1087E2D9F2D802F0A
:1007D000612F272F392F482F562FB901CA01CDB7C6
:1007E000DEB7ECE00C94822EFB01DC01415050405E
:1007F00088F08D9181341CF08B350CF4805E65910E
:1008000061341CF06B350CF4605E861B611171F372
:10081000990B0895881BFCCFEF92FF920F931F93C3
:10082000CF93DF93EC018B017A0182EA95E0998303
:100830008883CE010F9660E072E00E94572B013052
:10084000110511F488E70EC00230110511F489E793
:1008500009C00330110511F48AE704C00430110502
:1008600021F482E78A831C830B831D821E821F82F0
:10087000188680E090E0A0E0B0E089879A87AB8797
:10088000BC87FE86ED86DF91CF911F910F91FF907F
:10089000EF9008950F931F938C01FC01808191814B
:1008A0000E94F801F80113821282158214821F91AE
:1008B0000F910895CF92DF92EF92FF920F931F93C3
:1008C000DF93CF93CDB7DEB7CC56D0400FB6F894B8
:1008D000DEBF0FBECDBF7C016B01CB016EE20E947B
:1008E0008A2A181619060CF0E9C1C6016EE20E94A8
:1008F0008A2A8C01C6016EE20E94642A0817190731
:1009000009F0C8C1DBC1F60184819581089708F020
:10091000C1C1C6016EE20E948A2A97FF08C000E0AA
:10092000F60184819581039708F0B7C1B5C17E01B6
:100930000894E11CF11CC701B60140E050E021E041
:1009400030E00E947F2B8E01095F1F4FC8016EE2CD
:100950000E94222BC701B8010E948F2A882311F41C
:1009600000E007C000E0F60184819581059708F456
:1009700001E0CE0107960E944A04CE0101960E9432
:100980004A04002309F088C17DE0E72EF12CEC0E2B
:10099000FD1EC701B60141E050E022E030E00E94B8
:1009A0007F2B8E010D5E1F4FC8016EE20E94222B2D
:1009B000C701B8010E948F2A882311F400E007C004
:1009C00000E0F60184819581029708F001E0CE01F4
:1009D00043960E944A04CE010D960E944A040023C9
:1009E00009F05AC169E1E62EF12CEC0EFD1EC7019B
:1009F000B60142E050E023E030E00E947F2B8E0100
:100A0000015E1F4FC8016EE20E94222BC701B80190
:100A10000E948F2A882311F400E007C000E0F6014D
:100A200084819581039708F001E0CE014F960E94E2
:100A30004A04CE0149960E944A04002309F02CC1C1
:100A400055E2E52EF12CEC0EFD1EC701B60140E08B
:100A500050E022E030E00E947F2B8E01055D1F4FA9
:100A6000C80161E072E00E94572BC701B8010E94E3
:100A70008F2A882311F400E007C000E0F60184818A
:100A80009581079708F401E0CE018B960E944A04F5
:100A9000CE018596FCC0F60184819581089708F007
:100AA000F9C0C6016EE20E948A2A97FF08C000E0E2
:100AB000F60184819581049708F0EFC0EDC041E311
:100AC000E42EF12CEC0EFD1EC701B60140E050E013
:100AD00021E030E00E947F2B8E01095C1F4FC8018E
:100AE0006EE20E94222BC701B8010E948F2A882340
:100AF00011F400E007C000E0F601848195810497BD
:100B000008F401E0CE01C7960E944A04CE01C196C6
:100B10000E944A04002309F0BFC03DE3E32EF12CFC
:100B2000EC0EFD1EC701B60141E050E022E030E0CE
:100B30000E947F2B8E010D5B1F4FC8016EE20E9449
:100B4000222BC701B8010E948F2A882311F400E0EC
:100B500007C000E0F60184819581029708F001E06A
:100B6000CE018D5B9F4F0E944A04CE01CD960E941C
:100B70004A04002309F090C029E4E22EF12CEC0E87
:100B8000FD1EC701B60142E050E023E030E00E94C4
:100B90007F2B8E01015B1F4FC8016EE20E94222B4A
:100BA000C701B8010E948F2A882311F400E007C012
:100BB00000E0F60184819581039708F001E0CE0101
:100BC000815B9F4F0E944A04CE01875B9F4F0E942A
:100BD0004A04002309F060C095E5E92EF12CEC0EE3
:100BE000FD1EC701B60143E050E024E030E00E9462
:100BF0007F2B8E01055A1F4FC8016EE20E94222BE7
:100C0000C701B8010E948F2A882311F400E007C0B1
:100C100000E0F60184819581049708F001E0CE019F
:100C2000855A9F4F0E944A04CE018B5A9F4F0E94C3
:100C30004A04002389F581E6E82EF12CEC0EFD1E16
:100C4000C701B60140E050E022E030E00E947F2B77
:100C50008E0109591F4FC80161E072E00E94572BB5
:100C6000C701B8010E948F2A882311F400E007C051
:100C700000E0F60184819581079708F401E0CE0138
:100C800089599F4F0E944A04CE018F599F4F0E945D
:100C90004A0403C000E001C001E0802FC459DF4FC7
:100CA0000FB6F894DEBF0FBECDBFCF91DF911F917D
:100CB0000F91FF90EF90DF90CF900895F70183811F
:100CC0009481049709F01FCEE6CE8F929F92AF9247
:100CD000BF92CF92DF92EF92FF920F931F93DF9319
:100CE000CF93CDB7DEB7C25DD0400FB6F894DEBF6C
:100CF0000FBECDBF4C018B01CB0164E072E00E94BE
:100D00006A02009709F431C360916205709163052E
:100D1000C8010E946A02009761F4F40185859685F6
:100D20000E94691664E170E080E090E00E948023F8
:100D30001CC36091600570916105C8010E946A0240
:100D40000097F9F480E090E0A0E0B0E0F401818742
:100D50009287A387B4878E010F5F1F4FC80160E0A1
:100D600072E00E94572BC4010F96B8010E94F22A2C
:100D7000C8010E944A04F4016185728583859485C7
:100D8000C5C06091640570916505C8010E946A0242
:100D90000097E1F4F4018281883719F40E94990BDD
:100DA00004C0893741F40E94A20BF4016583768365
:100DB00087839087DAC28A3719F40E94AB0BF5CF8C
:100DC000823709F0D2C20E94B40BEFCF6091660562
:100DD00070916705C8010E946A02009709F056C029
:100DE000F4018281883791F4A580B680C780D084D1
:100DF0000E94990B9B01AC01F401E184F28403850C
:100E00001485C601B5010E94800EAFC2893799F4DE
:100E1000F401A580B680C780D0840E94A20B9B01FC
:100E2000AC01F401E184F28403851485C601B501A7
:100E30000E943F0E9AC28A3799F4F401A580B680C9
:100E4000C780D0840E94AB0B9B01AC01F401E1840C
:100E5000F28403851485C601B5010E94FE0D85C28A
:100E6000823709F082C2F401A580B680C780D084A1
:100E70000E94B40B9B01AC01F401E184F284038570
:100E80001485C601B5010E94BD0D6FC260914A056F
:100E900070914B05C8010E946A02009709F03FC09B
:100EA0005FE0C52ED12CC80CD91C8E01095F1F4FE5
:100EB000C80169E072E00E94572BC601B8010E9488
:100EC000BC2AC8010E944A048E01035F1F4FC8015B
:100ED000B6010E943C2BC401B8010E945A04F82EAE
:100EE000C8010E944A04FF20B1F084010B5E1F4F2D
:100EF000C601B80147E050E00E940B2AC8010E94D9
:100F00005002F401618772878387948743815481FB
:100F10000E94B11A2AC28E010D5E1F4F14C2609149
:100F20004C0570914D05C8010E946A02009751F569
:100F30004FE0C42ED12CC80CD91C8E01075E1F4F68
:100F4000C8016BE072E00E94572BC601B8010E94F5
:100F5000BC2AC8010E944A048E01015E1F4FC801CD
:100F6000B6010E943C2BC401B8010E945A04F82E1D
:100F7000C8010E944A04FF2009F096C18E010B5D52
:100F80001F4FE1C160914E0570914F05C8010E944D
:100F90006A02009751F53FE0C32ED12CC80CD91C32
:100FA0008E01055D1F4FC8016DE072E00E94572B56
:100FB000C601B8010E94BC2AC8010E944A048E01E1
:100FC0000F5C1F4FC801B6010E943C2BC401B80141
:100FD0000E945A04F82EC8010E944A04FF2009F01A
:100FE00063C18E01095C1F4FAEC1609150057091C5
:100FF0005105C8010E946A02009751F52FE0C22EE8
:10100000D12CC80CD91C8E01035C1F4FC8016FE0A6
:1010100072E00E94572BC601B8010E94BC2AC80189
:101020000E944A048E010D5B1F4FC801B6010E9449
:101030003C2BC401B8010E945A04F82EC8010E943A
:101040004A04FF2009F030C18E01075B1F4F7BC1AE
:101050006091520570915305C8010E946A02009781
:1010600051F59FE0C92ED12CC80CD91C8E01015B13
:101070001F4FC80161E172E00E94572BC601B80101
:101080000E94BC2AC8010E944A048E010B5A1F4FBD
:10109000C801B6010E943C2BC401B8010E945A0449
:1010A000F82EC8010E944A04FF2009F0FDC08E01FD
:1010B000055A1F4F48C16091540570915505C801EC
:1010C0000E946A02009751F58FE0C82ED12CC80CFF
:1010D000D91C8E010F591F4FC80163E172E00E94B5
:1010E000572BC601B8010E94BC2AC8010E944A04BD
:1010F0008E0109591F4FC801B6010E943C2BC40143
:10110000B8010E945A04F82EC8010E944A04FF2028
:1011100009F0CAC08E0103591F4F15C160915605D1
:1011200070915705C8010E946A02009751F50FE0BF
:10113000C02ED12CC80CD91C8E010D581F4FC801D0
:1011400065E172E00E94572BC601B8010E94BC2ADB
:10115000C8010E944A048E0107581F4FC801B601FA
:101160000E943C2BC401B8010E945A04F82EC80109
:101170000E944A04FF2009F097C08E0101581F4FBA
:10118000E2C06091580570915905C8010E946A0239
:10119000009751F51FE0C12ED12CC80CD91C8E012F
:1011A0000B571F4FC80167E172E00E94572BC60121
:1011B000B8010E94BC2AC8010E944A048E0105574A
:1011C0001F4FC801B6010E943C2BC401B8010E9408
:1011D0005A04F82EC8010E944A04FF2009F064C096
:1011E0008E010F561F4FAFC060915A0570915B057D
:1011F000C8010E946A02009749F5BFE0CB2ED12CAE
:10120000C80CD91C8E0109561F4FC80169E172E054
:101210000E94572BC601B8010E94BC2AC8010E9437
:101220004A048E0103561F4FC801B6010E943C2B91
:10123000C401B8010E945A04F82EC8010E944A0451
:10124000FF2091F58E010D551F4F7DC060915C050B
:1012500070915D05C8010E946A02009789F5AFE0B0
:10126000CA2ED12CC80CD91C8E0107551F4FC8019E
:101270006BE172E00E94572BC601B8010E94BC2AA4
:10128000C8010E944A048E0101551F4FC801B601D2
:101290000E943C2BC401B8010E945A04F82EC801D8
:1012A0000E944A04FF2041F084010B5E1F4FC601DB
:1012B000B80148E050E020CE8E010B541F4F43C0D0
:1012C00060915E0570915F05C8010E946A020097F7
:1012D00009F04BC0F40183899489FFE0EF2EF12CD3
:1012E000E80CF91C892B39F48E0105541F4FC801F5
:1012F00061E072E006C08E010F531F4FC8016DE11F
:1013000072E00E94572BC701B8010E94BC2AC80195
:101310000E944A04EFE0CE2ED12CC80CD91C8E01BD
:1013200009531F4FC801B6010E943C2BC401B801EC
:101330000E945A04F82EC8010E944A04FF20A9F412
:101340008E0103531F4FF40123893489215030400B
:10135000C801B60140E050E00E947F2BC601B801F1
:101360000E94F22AC8010E944A04CE52DF4F0FB6F3
:10137000F894DEBF0FBECDBFCF91DF911F910F91CB
:10138000FF90EF90DF90CF90BF90AF909F908F90A5
:101390000895CF93DF93EC018A81883719F481E0B7
:1013A00090E00EC0893719F482E090E009C08A37D6
:1013B00019F483E090E004C0823761F484E090E0A7
:1013C0000E945F1F69857A858B859C854B815C8136
:1013D0000E94B11ADF91CF9108956091E10570915B
:1013E000E2058091E3059091E40520E030E040E0E3
:1013F00050E00E94652D87FF03C02FEF3FEF02C032
:1014000021E030E0C90108956091ED057091EE058D
:101410008091EF059091F00520E030E040E050E051
:101420000E94652D87FF03C02FEF3FEF02C021E030
:1014300030E0C90108956091F9057091FA05809135
:10144000FB059091FC0520E030E040E050E00E9478
:10145000652D87FF03C02FEF3FEF02C021E030E092
:10146000C9010895609105067091060680910706EE
:101470009091080620E030E040E050E00E94652DA9
:1014800087FF03C02FEF3FEF02C021E030E0C9012A
:101490000895EF92FF920F931F936091E50570916D
:1014A000E6058091E7059091E8050E94B52C209112
:1014B000E1053091E2054091E3055091E4050E9479
:1014C000692D7B018C016093DD057093DE058093AF
:1014D000DF059093E00523EF3FEF47EC52E40E94D5
:1014E000652D18162CF483EF9FEFA7ECB2E40EC025
:1014F000C801B70123EF3FEF47EC52EC0E941B2CD1
:10150000882364F483EF9FEFA7ECB2EC8093DD05B2
:101510009093DE05A093DF05B093E0052091DD05F3
:101520003091DE054091DF055091E005B901CA0117
:101530001F910F91FF90EF900895EF92FF920F93FC
:101540001F936091F1057091F2058091F3059091E0
:10155000F4050E94B52C2091ED053091EE054091E7
:10156000EF055091F0050E94692D7B018C0160937D
:10157000E9057093EA058093EB059093EC0523EF62
:101580003FEF47EC52E40E94652D18162CF483EFD0
:101590009FEFA7ECB2E40EC0C801B70123EF3FEF05
:1015A00047EC52EC0E941B2C882364F483EF9FEFDE
:1015B000A7ECB2EC8093E9059093EA05A093EB05C4
:1015C000B093EC052091E9053091EA054091EB05D7
:1015D0005091EC05B901CA011F910F91FF90EF9056
:1015E0000895EF92FF920F931F936091FD05709104
:1015F000FE058091FF05909100060E94B52C209178
:10160000F9053091FA054091FB055091FC050E94C7
:10161000692D7B018C016093F5057093F60580932D
:10162000F7059093F80523EF3FEF47EC52E40E9453
:10163000652D18162CF483EF9FEFA7ECB2E40EC0D3
:10164000C801B70123EF3FEF47EC52EC0E941B2C7F
:10165000882364F483EF9FEFA7ECB2EC8093F50549
:101660009093F605A093F705B093F8052091F50542
:101670003091F6054091F7055091F805B901CA017E
:101680001F910F91FF90EF900895EF92FF920F93AB
:101690001F936091090670910A0680910B06909144
:1016A0000C060E94B52C209105063091060640914B
:1016B0000706509108060E94692D7B018C016093FA
:1016C000010670930206809303069093040620EFB0
:1016D0003FEF49E754E40E94652D18162CF480EF83
:1016E0009FEFA9E7B4E40EC0C801B70120EF3FEFB8
:1016F00049E754EC0E941B2C882364F480EF9FEF91
:10170000A9E7B4EC8093010690930206A093030628
:10171000B093040620910106309102064091030621
:1017200050910406B901CA011F910F91FF90EF90EB
:1017300008956091E5057091E6058091E705909127
:10174000E80508956091F1057091F2058091F30527
:101750009091F40508956091FD057091FE058091CA
:10176000FF059091000608956091090670910A06A0
:1017700080910B0690910C0608951092E505109249
:10178000E6051092E7051092E80580E090E0A0E001
:10179000B0E08093DD059093DE05A093DF05B09364
:1017A000E00508951092F1051092F2051092F305EC
:1017B0001092F40580E090E0A0E0B0E08093E905AD
:1017C0009093EA05A093EB05B093EC050895109271
:1017D000FD051092FE051092FF051092000680E0B4
:1017E00090E0A0E0B0E08093F5059093F605A0931B
:1017F000F705B093F80508951092090610920A06AD
:1018000010920B0610920C0680E090E0A0E0B0E091
:101810008093010690930206A0930306B0930406FA
:1018200008952091E5053091E6054091E705509136
:10183000E8052F3F8FEF38078FEF48078FEF5807E6
:1018400019F482E090E002C081E090E09093D2052C
:101850008093D1052F5F3F4F4F4F5F4F2093E5059A
:101860003093E6054093E7055093E80508952091ED
:10187000F1053091F2054091F3055091F4052F3FA9
:101880008FEF38078FEF48078FEF580719F482E082
:1018900090E002C081E090E09093D4058093D3055E
:1018A0002F5F3F4F4F4F5F4F2093F1053093F2056D
:1018B0004093F3055093F40508952091FD05309170
:1018C000FE054091FF05509100062F3F8FEF38072E
:1018D0008FEF48078FEF580719F482E090E002C0BD
:1018E00081E090E09093D6058093D5052F5F3F4F20
:1018F0004F4F5F4F2093FD053093FE054093FF054A
:101900005093000608952091090630910A064091EF
:101910000B0650910C062F3F8FEF38078FEF4807CB
:101920008FEF580719F482E090E002C081E090E068
:101930009093D8058093D7052F5F3F4F4F4F5F4F50
:101940002093090630930A0640930B0650930C0629
:1019500008952091E5053091E6054091E705509105
:10196000E805211531054105510519F483E090E0A2
:1019700002C081E090E09093D2058093D105215080
:101980003040404050402093E5053093E6054093B9
:10199000E7055093E80508952091F1053091F2058F
:1019A0004091F3055091F40521153105410551058C
:1019B00019F483E090E002C081E090E09093D405B8
:1019C0008093D30521503040404050402093F10592
:1019D0003093F2054093F3055093F4050895209158
:1019E000FD053091FE054091FF055091000621153F
:1019F00031054105510519F483E090E002C081E012
:101A000090E09093D6058093D5052150304040401A
:101A100050402093FD053093FE054093FF05509301
:101A2000000608952091090630910A0640910B06A0
:101A300050910C06211531054105510519F483E03B
:101A400090E002C081E090E09093D8058093D705A4
:101A500021503040404050402093090630930A0600
:101A600040930B0650930C0608958091D1059091F8
:101A7000D20508958091D3059091D4050895809161
:101A8000D5059091D60508958091D7059091D805F8
:101A900008951092D2051092D10508951092D405A0
:101AA0001092D30508951092D6051092D505089589
:101AB0001092D8051092D70508952091050630910F
:101AC00006064091070650910806505820930506D7
:101AD00030930606409307065093080680ED95E084
:101AE0006DE070E00E948D1008952091F90530910D
:101AF000FA054091FB055091FC0550582093F905DB
:101B00003093FA054093FB055093FC0580ED95E07A
:101B100069E070E00E948D1008952091ED053091EC
:101B2000EE054091EF055091F00550582093ED05DA
:101B30003093EE054093EF055093F00580ED95E06E
:101B400065E070E00E948D1008952091E1053091CC
:101B5000E2054091E3055091E40550582093E105DA
:101B60003093E2054093E3055093E40580ED95E062
:101B700060E070E00E948D100895EF92FF920F9345
:101B80001F93261B370B480B590BCA01B9010E9442
:101B9000B52C9B01AC01C801B7010E941F2C6093BA
:101BA000050670930606809307069093080620E0CA
:101BB00030E040E050E00E941B2C882361F48CEA66
:101BC00095ECA7E2B7E38093050690930606A093F1
:101BD0000706B0930806209105063091060640914D
:101BE00007065091080680ED95E06DE070E00E94D8
:101BF0008D101F910F91FF90EF900895EF92FF923B
:101C00000F931F93261B370B480B590BCA01B901C1
:101C10000E94B52C9B01AC01C801B7010E941F2C8A
:101C20006093F9057093FA058093FB059093FC058A
:101C300020E030E040E050E00E941B2C882361F45B
:101C40008CEA95ECA7E2B7E38093F9059093FA0547
:101C5000A093FB05B093FC052091F9053091FA059E
:101C60004091FB055091FC0580ED95E069E070E046
:101C70000E948D101F910F91FF90EF900895EF92A9
:101C8000FF920F931F93261B370B480B590BCA016A
:101C9000B9010E94B52C9B01AC01C801B7010E949B
:101CA0001F2C6093ED057093EE058093EF059093E4
:101CB000F00520E030E040E050E00E941B2C88233B
:101CC00061F48CEA95ECA7E2B7E38093ED0590937D
:101CD000EE05A093EF05B093F0052091ED0530914E
:101CE000EE054091EF055091F00580ED95E065E03F
:101CF00070E00E948D101F910F91FF90EF9008955A
:101D0000EF92FF920F931F93261B370B480B590B33
:101D1000CA01B9010E94B52C9B01AC01C801B701F1
:101D20000E941F2C6093E1057093E2058093E30508
:101D30009093E40520E030E040E050E00E941B2C4E
:101D4000882361F48CEA95ECA7E2B7E38093E10580
:101D50009093E205A093E305B093E4052091E1059B
:101D60003091E2054091E3055091E40580ED95E066
:101D700060E070E00E948D101F910F91FF90EF9036
:101D800008959B01AC01609305067093060680934D
:101D900007069093080680ED95E06DE070E00E94E4
:101DA0008D1008959B01AC016093F9057093FA05BD
:101DB0008093FB059093FC0580ED95E069E070E071
:101DC0000E948D1008959B01AC016093ED05709306
:101DD000EE058093EF059093F00580ED95E065E0CA
:101DE00070E00E948D1008959B01AC016093E105A5
:101DF0007093E2058093E3059093E40580ED95E010
:101E000060E070E00E948D10089580ED95E06DE037
:101E100070E00E94B81060930506709306068093E8
:101E200007069093080620E030E040E050E00E9472
:101E30001B2C882361F48CEA95ECA7E2B7E380932E
:101E4000050690930606A0930706B0930806209116
:101E50000506309106064091070650910806B90123
:101E6000CA01089580ED95E069E070E00E94B81025
:101E70006093F9057093FA058093FB059093FC0538
:101E800020E030E040E050E00E941B2C882361F409
:101E90008CEA95ECA7E2B7E38093F9059093FA05F5
:101EA000A093FB05B093FC052091F9053091FA054C
:101EB0004091FB055091FC05B901CA01089580EDE0
:101EC00095E065E070E00E94B8106093ED057093B6
:101ED000EE058093EF059093F00520E030E040E0C0
:101EE00050E00E941B2C882361F48CEA95ECA7E259
:101EF000B7E38093ED059093EE05A093EF05B093C3
:101F0000F0052091ED053091EE054091EF055091DF
:101F1000F005B901CA01089580ED95E060E070E038
:101F20000E94B8106093E1057093E2058093E30589
:101F30009093E40520E030E040E050E00E941B2C4C
:101F4000882361F48CEA95ECA7E2B7E38093E1057E
:101F50009093E205A093E305B093E4052091E10599
:101F60003091E2054091E3055091E405B901CA01C1
:101F700008958430910520F49093100680930F0605
:101F800040910F065091100680ED95E067E170E0FA
:101F90000E94EA1008958430910520F490930E0673
:101FA00080930D0640910D0650910E0680ED95E050
:101FB00065E170E00E94EA1008958330910520F4F5
:101FC0009093DC058093DB054091DB055091DC05A7
:101FD00080ED95E063E170E00E94EA100895CF93F0
:101FE000DF93EC018230910508F068C08091D9053B
:101FF0009091DA05009759F5C130D10509F053C029
:102000000E948C0F2CE53FE842E250E40E94692DCB
:102010000E94F40E0E945F0F2CE53FE842E250E47C
:102020000E94692D0E94E30E0E94320F2CE53FE8CA
:1020300042E250E40E94692D0E94D20E0E94050FD8
:102040002CE53FE842E250E40E94692D2AC0019746
:1020500051F5209741F50E948C0F2CE53FE842E2B4
:1020600050E40E941F2C0E94F40E0E945F0F2CE58A
:102070003FE842E250E40E941F2C0E94E30E0E94BF
:10208000320F2CE53FE842E250E40E941F2C0E94F0
:10209000D20E0E94050F2CE53FE842E250E40E9478
:1020A0001F2C0E94C10ED093DA05C093D90580ED94
:1020B00095E061E170E0AE010E94EA10DF91CF91FE
:1020C000089580ED95E067E170E00E941011809323
:1020D0000F0690931006089580ED95E065E170E09D
:1020E0000E94101180930D0690930E06089580EDC6
:1020F00095E063E170E00E9410118093DB059093FE
:10210000DC05089580ED95E061E170E00E9410111A
:102110008093D9059093DA050895DF93CF9300D08B
:1021200000D0CDB7DEB729833A834B835C83CB01E4
:10213000FE013196AE014B5F5F4F0EC02081F999D1
:10214000FECF31961FBA92BD81BD20BD0FB6F89467
:10215000FA9AF99A0FBE0196E417F50779F784E029
:1021600090E00F900F900F900F90CF91DF91089516
:10217000DF93CF9300D000D0CDB7DEB780E090E002
:10218000A0E0B0E089839A83AB83BC8320E030E099
:10219000AE014F5F5F4FF999FECFC901860F971FC0
:1021A00092BD81BDF89A80B5FA01E20FF31F8083DA
:1021B0002F5F3F4F2430310571F729813A814B81E0
:1021C0005C81B901CA010F900F900F900F90CF91D1
:1021D000DF910895DF93CF9300D0CDB7DEB75A8358
:1021E0004983CB01FE013196AE014D5F5F4F0EC0BA
:1021F0002081F999FECF31961FBA92BD81BD20BDD5
:102200000FB6F894FA9AF99A0FBE0196E417F507FB
:1022100079F782E090E00F900F90CF91DF910895D1
:10222000DF93CF9300D0CDB7DEB71A82198220E0BA
:1022300030E0AE014F5F5F4FF999FECFC901860FC5
:10224000971F92BD81BDF89A80B5FA01E20FF31F86
:1022500080832F5F3F4F2230310571F789819A814A
:102260000F900F90CF91DF9108950F931F93CF930D
:10227000DF93EC018B01CB016FE672E00E946A02F2
:10228000009729F480E090E00E94291CC4C060916E
:10229000700570917105C8010E946A02009751F49F
:1022A00064E170E080E090E00E9480238A819B815D
:1022B0002496AEC06091720570917305C8010E94AA
:1022C0006A02009751F464E170E080E090E00E94BF
:1022D00080238A819B81A2969BC060917405709136
:1022E0007505C8010E946A02009759F464E170E024
:1022F00080E090E00E9480238A819B81C05CDF4F58
:1023000087C06091760570917705C8010E946A02C6
:10231000009759F464E170E080E090E00E9480232F
:102320008A819B81C25ADF4F73C0609168057091AA
:102330006905C8010E946A02009751F40E94BD0B12
:1023400081E090E00E94291C80E00E94941A63C002
:1023500060916A0570916B05C8010E946A0200973E
:1023600051F40E94D20B82E090E00E94291C80E090
:102370000E94881A50C060916C0570916D05C8016B
:102380000E946A02009751F40E94E70B83E090E0FC
:102390000E94291C80E00E947C1A3DC060916E055D
:1023A00070916F05C8010E946A02009751F40E9463
:1023B000FC0B84E090E00E94291C80E00E94701ACF
:1023C0002AC06091780570917905C8010E946A025F
:1023D000009759F464E170E080E090E00E9480236F
:1023E0008A819B81C458DF4F13C060917A05709138
:1023F0007B05C8010E946A02009769F464E170E0FD
:1024000080E090E00E9480238A819B81C058DF4F4A
:10241000BE010E945013DF91CF911F910F9108953B
:102420000E949A1F0895EF92FF920F931F938C01C1
:102430007B018AEA95E0F80191838083738362834C
:10244000C801049661E070E0A7010E940C04C80175
:10245000829662E070E0A7010E940C04C801805CD3
:102460009F4F63E070E0A7010E940C04C801825AEC
:102470009F4F64E070E0A7010E940C04C8018458DB
:102480009F4FB7010E943817C80180589F4FB7016E
:102490000E944F121F910F91FF90EF900895FC0141
:1024A00082EB95E0918380837383628308950F9319
:1024B0001F9301E518E0C8016BEA72E00E94002A50
:1024C000C8016FEA72E00E94002AC80163EB72E063
:1024D0000E94002AC80167EB72E00E94002A1F9147
:1024E0000F9108950F931F9301E518E0C8016BEB5E
:1024F00072E00E94002AC8016FEB72E00E94002A7D
:10250000C80163EC72E00E94002AC80167EC72E027
:102510000E94002A1F910F9108950F931F93CF934C
:10252000DF938C01EB01CB016BEC72E00E946A023D
:10253000009709F4ABC0CE0160ED72E00E946A0220
:10254000009731F4F801828193810E9469169EC040
:1025500060917C0570917D05CE010E946A02009712
:1025600009F04EC00E946110892B09F449C080E037
:1025700090E007C00E946110019709F44BC081E010
:1025800090E00E94CB0F0E94ED19C8010E947212C8
:102590007DC00E946110029709F446C082E090E07D
:1025A000F0CF0E946110039709F448C083E090E0E7
:1025B000E8CF0E946C10892B09F44AC080E090E0BB
:1025C00017C00E946C10019709F44CC081E090E0A4
:1025D0000FC00E946C10029709F44EC082E090E098
:1025E00007C00E946C10039709F450C083E090E08C
:1025F0000E94B90F0E94ED19C8010E94571246C0EF
:1026000060917E0570917F05CE010E946A0200975D
:1026100009F4B0CF6091800570918105CE010E94D0
:102620006A02009709F4B5CF609182057091830525
:10263000CE010E946A02009709F4B3CF609184052D
:1026400070918505CE010E946A02009709F4B1CF0E
:102650006091860570918705CE010E946A020097FD
:1026600009F4AFCF6091880570918905CE010E9471
:102670006A02009709F4ADCF60918A0570918B05CD
:10268000CE010E946A02009709F4ABCFDF91CF918F
:102690001F910F9108950E94301A0E94ED1908951C
:1026A000FC01DB0185819681908787837683658332
:1026B000ED91FC910190F081E02DCB0109950895F9
:1026C000FC01728761870E94501308954F925F92B8
:1026D0006F927F928F929F92AF92BF92CF92DF9232
:1026E000EF92FF920F931F93DF93CF9300D000D010
:1026F000CDB7DEB77C01DC0150968D919C9151974E
:1027000059969C938E93589752968D919C9153977E
:102710005B969C938E935A9754968D919C91559766
:102720005D969C938E935C9756968D919C9157974E
:102730005F969C938E935E970E94ED095C010E94C8
:10274000040A4C010E941B0A3C010E94320A2C011F
:1027500080E40E94F124F701918B808B8EE30E942C
:10276000F124D70153969C938E93529781E40E9453
:10277000F124F701958B848B8FE30E94F124D7011C
:1027800057969C938E9356970E946C106C010E94F2
:102790006110F70140895189008CF18DE02D4E17B1
:1027A0005F0719F04130510579F0D70152962D910C
:1027B0003C9153975A966D917C915B9726173707FA
:1027C000D1F121303105B9F5009759F481E598E050
:1027D0006DEF72E00E94002ACE0101966DEF72E06B
:1027E000D5C08130910559F481E598E061E073E04E
:1027F0000E94002ACE01019661E073E0C7C08230DA
:10280000910559F481E598E065E073E00E94002AA3
:10281000CE01019665E073E0B9C0039709F0B8C036
:1028200081E598E069E073E00E94002ACE010196FC
:1028300069E073E0ABC04E175F0781F141155105A8
:1028400069F52130310551F5009739F48E010F5F9C
:102850001F4F1A141B04A4F13DC08130910541F4AF
:102860008E010F5F1F4F181419040CF445C04EC0A1
:102870008230910541F48E010F5F1F4F161417042B
:102880000CF456C05FC0039709F082C08E010F5F41
:102890001F4F141415040CF466C06FC026173707B9
:1028A00009F476C0232B09F073C04130510509F0BB
:1028B0006FC00097C9F48E010F5F1F4FB7FE0AC0AB
:1028C00081E598E06DE073E00E94002AC8016DE0A8
:1028D00073E05CC081E598E061E173E00E94002A4A
:1028E000C80161E173E052C081309105C9F48E01E5
:1028F0000F5F1F4F97FE0AC081E598E065E173E026
:102900000E94002AC80165E173E040C081E598E0BB
:1029100069E173E00E94002AC80169E173E036C0F2
:1029200082309105C9F48E010F5F1F4F77FE0AC0F8
:1029300081E598E06DE173E00E94002AC8016DE135
:1029400073E024C081E598E061E273E00E94002A10
:10295000C80161E273E01AC00397D1F48E010F5FE2
:102960001F4F57FE0AC081E598E065E273E00E94C0
:10297000002AC80165E273E009C081E598E069E2D8
:1029800073E00E94002AC80169E273E00E947302AA
:10299000F70126893789668D778D2617370719F055
:1029A0002130310581F0D70154968D919C91559736
:1029B0005C964D915C915D978417950709F43FC033
:1029C00081309105E1F5C114D10459F481E598E015
:1029D0006DE273E00E94002ACE0101966DE273E081
:1029E000E3C0B1E0CB16D10459F481E598E061E38E
:1029F00073E00E94002ACE01019661E373E0D4C027
:102A0000E2E0CE16D10459F481E598E065E373E085
:102A10000E94002ACE01019665E373E0C5C0F3E091
:102A2000CF16D10409F0C2C081E598E069E373E0F4
:102A30000E94002ACE01019669E373E0B5C0261713
:102A40003707A9F12115310591F58130910579F507
:102A5000C114D10439F48E010F5F1F4F1A141B04E7
:102A6000CCF142C081E0C816D10441F48E010F5F61
:102A70001F4F181419040CF44AC053C0A2E0CA1620
:102A8000D10441F48E010F5F1F4F161417040CF48C
:102A90005BC064C0B3E0CB16D10409F087C08E01DF
:102AA0000F5F1F4F141415040CF46BC074C084170F
:102AB000950709F47BC0892B09F078C021303105D6
:102AC00009F074C0C114D104C9F48E010F5F1F4F07
:102AD000B7FE0AC081E598E06DE373E00E94002A2A
:102AE000C8016DE373E060C081E598E061E473E0E4
:102AF0000E94002AC80161E473E056C0E1E0CE16EE
:102B0000D104C9F48E010F5F1F4F97FE0AC081E503
:102B100098E065E473E00E94002AC80165E473E070
:102B200043C081E598E069E473E00E94002AC8018F
:102B300069E473E039C0F2E0CF16D104C9F48E0124
:102B40000F5F1F4F77FE0AC081E598E06DE473E0E8
:102B50000E94002AC8016DE473E026C081E598E078
:102B600061E573E00E94002AC80161E573E01CC0C2
:102B700083E0C816D104D1F48E010F5F1F4F57FEBA
:102B80000AC081E598E065E573E00E94002AC8016B
:102B900065E573E009C081E598E069E573E00E94AE
:102BA000002AC80169E573E00E947302D7015096BC
:102BB0008D919C915197892B91F052968D919C917A
:102BC0005397892B61F056968D919C915797892B3D
:102BD00031F054968D919C915597892B19F48DE085
:102BE00061E002C08DE060E00E9460248B818B3246
:102BF00019F08D3209F058C08A81813341F5F7010F
:102C000086899789892B09F04FC084899589892BFA
:102C100009F04AC08981883529F481E598E06DE2A0
:102C200073E040C0893529F481E598E061E373E001
:102C300039C08A3529F481E598E065E373E032C054
:102C4000813491F581E598E069E373E02BC082332C
:102C500059F5D70150968D919C915197892B21F56B
:102C600052968D919C915397892BF1F489818835E7
:102C700029F481E598E06DEF72E014C0893529F4FC
:102C800081E598E061E073E00DC08A3529F481E5C3
:102C900098E065E073E006C0813431F481E598E0A6
:102CA00069E073E00E94002A0F900F900F900F9040
:102CB000CF91DF911F910F91FF90EF90DF90CF9018
:102CC000BF90AF909F908F907F906F905F904F904C
:102CD00008950F931F938C01FC0187819085968343
:102CE0008583108617826AE070E080E090E00E94A1
:102CF0008023F801A581B681ED91FC911197019097
:102D0000F081E02DCD0109951F910F910895FF925B
:102D10000F931F93CF93DF93EC0164E670E080E0A4
:102D200090E00E9480238DE061E00E943A2464E6F6
:102D300070E080E090E00E9480238E01055F1F4FCD
:102D400085E0F82E0E94990B0E94A20B0E94AB0B0B
:102D50000E94B40BCE010E94661320C08AE898E05E
:102D60000E94A8278837D1F48B878AE898E00E94D0
:102D7000A8278C878AE898E00E94A8278D878AE890
:102D800098E00E94A8278E878AE898E00E94D027C2
:102D900064E170E080E090E00E9480238AE898E09F
:102DA0000E947A27892BD1F68B85883729F0C801B4
:102DB0006DE573E00E947302ED81FE81A081B18117
:102DC00012962D913C911397CF01B801F901099505
:102DD000F8018F2D11928A95E9F762E370E080E0A7
:102DE00090E00E948023AECF0F931F938C0187E069
:102DF00090E0D80111969C938E9313961C921E928C
:102E00001297C8010B96FC0185E0DF011D928A959F
:102E1000E9F78DE0F80184838AE898E040E052EC1D
:102E200061E070E00E948126D80151961C921E92AA
:102E3000509753961C921E92529755961C921E9232
:102E4000549757961C921E92569759961C921E9212
:102E500058975B961C921E925A975D961C921E92F2
:102E60005C975F961C921E925E971F910F9108953A
:102E7000FC018AEB95E091838083738362830895DC
:102E80000F931F93CF93DF938C01EB01CB0162E68D
:102E900073E00E946A02009709F4ACC0CE0167E6B5
:102EA00073E00E946A02009731F4F80182819381F5
:102EB0000E9469169FC06091920570919305CE01A2
:102EC0000E946A02009739F481E090E00E94EF0FBF
:102ED00081E090E00FC06091940570919505CE015E
:102EE0000E946A02009759F480E090E00E94EF0F80
:102EF00080E090E00E9497190E94371A7BC0609191
:102F00008C0570918D05CE010E946A02009739F4FC
:102F100082E090E00E94DD0F82E090E00FC06091BF
:102F20008E0570918F05CE010E946A02009749F4C8
:102F300081E090E00E94DD0F81E090E00E94C219E4
:102F4000DBCF6091900570919105CE010E946A02DD
:102F5000009739F480E090E00E94DD0F80E090E07F
:102F6000EDCFCE016CE673E00E946A02009799F4FF
:102F70008AE898E00E94D02781E793E061E070E062
:102F80000E9481198AE898E00E947A27892BD1F360
:102F90000E94691AB1CF6091960570919705CE0194
:102FA0000E946A02009719F40E94A50D23C0609147
:102FB000980570919905CE010E946A02009719F454
:102FC0000E948D0D17C060919A0570919B05CE01EE
:102FD0000E946A02009719F40E94750D0BC060915F
:102FE0009C0570919D05CE010E946A02009711F424
:102FF0000E945D0DDF91CF911F910F9108950E9466
:10300000691A0E94371A0E9477100E94C2190E9402
:1030100082100E94971908952F923F924F925F92CB
:103020006F927F928F929F92AF92BF92CF92DF92D8
:10303000EF92FF920F931F93DF93CF93CDB7DEB73D
:103040002A970FB6F894DEBF0FBECDBF6B017C018F
:103050003A01490128014115510509F45DC02115C6
:10306000310509F459C0AA24BB241E010894211C6F
:10307000311C81010A0D1B1DC701B6012AE030E099
:1030800040E050E00E94FE2D605DD8016C930894F2
:10309000A11CB11CC701B6012AE030E040E050E0BD
:1030A0000E94FE2DC901DA016C017D01C114D10419
:1030B000E104F10421F0BAE0AB16B104D1F69501B8
:1030C000A414B50410F000E002C0042D0A1940E079
:1030D00050E0E0E3CE0101960DC0015006C0215042
:1030E0003040FC01E20FF31FE081D301ED933D017D
:1030F0004F5F5F4F0894810891088114910449F053
:103100002115310519F4002341F703C0002339F3D9
:10311000E4CFF301108202C040E050E0CA012A96D9
:103120000FB6F894DEBF0FBECDBFCF91DF911F91D8
:103130000F91FF90EF90DF90CF90BF90AF909F9056
:103140008F907F906F905F904F903F902F90089559
:103150002F923F924F925F926F927F928F929F92A7
:10316000AF92BF92CF92DF92EF92FF920F931F9395
:10317000DF93CF9300D000D0CDB7DEB75B016C01F9
:1031800049011A8309832115310509F4A3C0E1140B
:10319000F10409F49FC0242E26E0241710F496E0D1
:1031A000292EC70101979C838B83892B09F490C03A
:1031B000C601B50120E030E040E050E00E941B2C49
:1031C00088236CF4D7FAD094D7F8D0948DE2F40128
:1031D00080832B813C81215030403C832B830F2EF8
:1031E000F0E0EF2EF0E0FF2EF0E00F2FFFE31F2FB7
:1031F000F02D81E0482E512C612C712C332415C008
:10320000C801B70120E030E040E251E40E941F2CE9
:103210007B018C01C301B2012AE030E040E050E0C4
:103220000E94CC2D2B013C013394321448F38B8146
:103230009C81892BC9F0C601B501A80197010E94A4
:10324000B72B5B016C010E94872CA4012B813C8170
:1032500009811A810E940C18880E991EEB81FC814D
:10326000E81BF90BFC83EB83222091F12B813C813D
:103270002115310569F18EE2F40181934F0121504E
:1032800030403C832B83232B19F1C601B5010E94EA
:10329000872C0E94B32C9B01AC01C601B5010E9492
:1032A000B62B7B018C01C301B2010E94B32C9B01A0
:1032B000AC01C801B7010E94692D0E94872CA401AE
:1032C0002B813C81022D10E00E940C18880E991E63
:1032D000F40110820F900F900F900F90CF91DF911B
:1032E0001F910F91FF90EF90DF90CF90BF90AF9024
:1032F0009F908F907F906F905F904F903F902F9016
:1033000008959C01672B31F48AE898E0B9010E9486
:10331000FD2808958AE898E0B9010E94FD288AE80E
:1033200098E06DE040E050E00E94D52908950097B4
:1033300039F481EA93E061E070E00E948119089518
:10334000019731F488EA93E061E070E00E9481190E
:1033500008958230910519F48FEA93E005C0813019
:10336000910539F487EB93E061E070E00E948119E8
:103370000895892B31F48FEB93E061E070E00E94B7
:10338000811908958230910549F48FEA93E061E054
:1033900070E00E94811985EC93E00BC081309105AB
:1033A00069F487EB93E061E070E00E9481198CEC96
:1033B00093E061E070E00E9481190895892B61F427
:1033C0008FEB93E061E070E00E94811983ED93E060
:1033D00061E070E00E94811908950F931F93CF93CD
:1033E000DF930E946C10EC010E9461108C01209709
:1033F00019F48AED93E010C0C130D10519F482EEC2
:1034000093E00AC0C230D10519F48AEE93E004C0FB
:10341000239731F482EF93E061E070E00E9481191C
:103420000115110519F48AEF93E011C0013011055F
:1034300019F482E094E00BC00230110519F48AE01F
:1034400094E005C00330110531F482E194E061E0BD
:1034500070E00E948119DF91CF911F910F91089523
:103460008AE194E061E070E00E94811908950F9371
:103470001F93CF93DF930E948210EC010E9477107C
:103480008C01C130D10519F488EA93E004C0CD2B3A
:1034900031F481EA93E061E070E00E948119011546
:1034A000110519F483ED93E00BC00130110519F4F7
:1034B0008CEC93E005C00230110531F485EC93E00B
:1034C00061E070E00E948119DF91CF911F910F910F
:1034D00008958FE194E061E070E00E948119089501
:1034E000882319F083E294E002C08BE394E061E06A
:1034F00070E00E9481190895882319F083E594E013
:1035000002C089E694E061E070E00E9481190895AC
:10351000882319F08FE794E002C084E994E061E029
:1035200070E00E9481190895882319F089EA94E0D7
:1035300002C08CEB94E061E070E00E948119089574
:103540000F931F930FEC14E0C80161E070E00E943C
:103550008119C80161E070E00E9481191F910F91EB
:103560000895CF92DF92EF92FF920F931F936B011A
:103570007C018A0181ED94E060E070E00E94811995
:103580000430110541F4C701B60143E021E236E001
:1035900003E010E007C0C701B60144E021E236E0D5
:1035A00002E010E059E0E52EF12C0E94A81881E21B
:1035B00096E061E070E00E9481191F910F91FF90E9
:1035C000EF90DF90CF900895EF92FF920F931F93AB
:1035D0000E94490A609311067093120680931306A5
:1035E000909314060E949D0A609315067093160628
:1035F00080931706909318060E94F10A60931906AB
:1036000070931A0680931B0690931C060E94450B2C
:1036100060931D0670931E0680931F0690932006EC
:103620000E948C0F0E945F0F0E94320F0E94050FB4
:103630006091110670911206809113069091140604
:1036400020E030E040E050E00E941B2C882314F47E
:1036500081E001C080E00E94941A6091150670918B
:103660001606809117069091180620E030E040E0A1
:1036700050E00E941B2C882314F481E001C080E0FC
:103680000E94881A6091190670911A0680911B0693
:1036900090911C0620E030E040E050E00E941B2C9E
:1036A000882314F481E001C080E00E947C1A6091BC
:1036B0001D0670911E0680911F069091200620E045
:1036C00030E040E050E00E941B2C882314F481E09D
:1036D00001C080E00E94701A86ED94E060E070E026
:1036E0000E948119E0901106F090120600911306D5
:1036F00010911406C801B70120E030E040E050E02E
:103700000E94652D181624F017FB109517F91095D7
:10371000C801B70144E021E236E002E010E0B9E080
:10372000EB2EF12C0E94A81881E296E060E070E098
:103730000E948119E0901506F09016060091170678
:1037400010911806C801B70120E030E040E050E0D9
:103750000E94652D181624F017FB109517F9109587
:10376000C801B70144E021E236E002E010E0A9E040
:10377000EA2EF12C0E94A8188BED94E060E070E036
:103780000E94811981E296E060E070E00E94811958
:10379000E0901906F0901A0600911B0610911C0685
:1037A000C801B70120E030E040E050E00E94652D04
:1037B000181624F017FB109517F91095C801B701DA
:1037C00044E021E236E002E010E0F9E0EF2EF12CD7
:1037D0000E94A8188BED94E060E070E00E948119CF
:1037E00081E296E060E070E00E948119E0901D06A1
:1037F000F0901E0600911F0610912006C801B70127
:1038000020E030E040E050E00E94652D181624F0E2
:1038100017FB109517F91095C801B70143E021E295
:1038200036E003E010E0E9E0EE2EF12C0E94A8184B
:103830008BED94E060E070E00E94811981E296E0F7
:1038400061E070E00E9481191F910F91FF90EF904D
:1038500008958F929F92AF92BF92CF92DF92EF9294
:10386000FF920F931F93CF93DF93EC010E94350DCE
:103870008C010E943A0D6C010E943F0D5C010E9478
:10388000440D4C010115110521F4C130D10509F099
:10389000BBC00E948C0F0E94490A6093110670936E
:1038A000120680931306909314060130110521F03F
:1038B000C130D10509F03FC08DED94E060E070E0CB
:1038C0000E948119E0901106F090120600911306F3
:1038D00010911406C801B70120E030E040E050E04C
:1038E0000E94652D181624F017FB109517F91095F6
:1038F000C801B70144E021E236E002E010E0E9E06F
:10390000EE2EF12C0E94A81881E296E061E070E0B2
:103910000E94811960911106709112068091130620
:103920009091140620E030E040E050E00E94652DC8
:10393000181694F164C00230110581F58DED94E004
:1039400060E070E00E948119E0901106F09012068C
:103950000091130610911406C801B70120E030E071
:1039600040E050E00E94652D181624F017FB1095DA
:1039700017F91095C801B70144E021E236E002E0F2
:1039800010E059E0E52EF12C0E94A81881E296E0A3
:1039900061E070E00E94811980E032C003301105BF
:1039A00089F58DED94E060E070E00E948119E0906F
:1039B0001106F09012060091130610911406C8012A
:1039C000B70120E030E040E050E00E94652D18167D
:1039D00024F017FB109517F91095C801B70144E0C2
:1039E00021E236E002E010E0B9E0EB2EF12C0E947B
:1039F000A81881E296E061E070E00E94811981E000
:103A00000E94941A0E94490DC114D10421F4C230BD
:103A1000D10509F0BEC00E945F0F0E949D0A60930D
:103A2000150670931606809317069093180681E08A
:103A3000C816D10421F0C230D10509F03FC082EE92
:103A400094E060E070E00E948119E0901506F0902B
:103A500016060091170610911806C801B70120E05C
:103A600030E040E050E00E94652D181624F017FB6E
:103A7000109517F91095C801B70144E021E236E02E
:103A800002E010E0A9E0EA2EF12C0E94A81881E2E1
:103A900096E061E070E00E948119609115067091D6
:103AA0001606809117069091180620E030E040E05D
:103AB00050E00E94652D18169CF166C082E0C81681
:103AC000D10481F582EE94E060E070E00E948119FB
:103AD000E0901506F0901606009117061091180652
:103AE000C801B70120E030E040E050E00E94652DC1
:103AF000181624F017FB109517F91095C801B70197
:103B000044E021E236E002E010E0F9E0EF2EF12C93
:103B10000E94A81881E296E061E070E00E9481199D
:103B200080E033C083E0C816D10489F582EE94E0CA
:103B300060E070E00E948119E0901506F090160692
:103B40000091170610911806C801B70120E030E077
:103B500040E050E00E94652D181624F017FB1095E8
:103B600017F91095C801B70144E021E236E002E000
:103B700010E0E9E0EE2EF12C0E94A81881E296E018
:103B800061E070E00E94811981E00E94881A0E9421
:103B90004E0DA114B10421F4C330D10509F0BEC00B
:103BA0000E94320F0E94F10A6093190670931A0660
:103BB00080931B0690931C0681E0A816B10421F0A7
:103BC000C330D10509F03FC087EE94E060E070E0BB
:103BD0000E948119E0901906F0901A0600911B06C8
:103BE00010911C06C801B70120E030E040E050E031
:103BF0000E94652D181624F017FB109517F91095E3
:103C0000C801B70144E021E236E002E010E059E0EB
:103C1000E52EF12C0E94A81881E296E061E070E0A8
:103C20000E9481196091190670911A0680911B06F5
:103C300090911C0620E030E040E050E00E94652DAD
:103C400018169CF166C082E0A816B10481F587EED3
:103C500094E060E070E00E948119E0901906F09015
:103C60001A0600911B0610911C06C801B70120E03E
:103C700030E040E050E00E94652D181624F017FB5C
:103C8000109517F91095C801B70144E021E236E01C
:103C900002E010E0B9E0EB2EF12C0E94A81881E2BE
:103CA00096E061E070E00E94811980E033C083E01B
:103CB000A816B10489F587EE94E060E070E00E94F8
:103CC0008119E0901906F0901A0600911B061091D8
:103CD0001C06C801B70120E030E040E050E00E943F
:103CE000652D181624F017FB109517F91095C801CB
:103CF000B70144E021E236E002E010E0A9E0EA2E5C
:103D0000F12C0E94A81881E296E061E070E00E9428
:103D1000811981E00E947C1A0E94530D8114910444
:103D200021F4C430D10509F0BDC00E94050F0E94E6
:103D3000450B60931D0670931E0680931F0690939B
:103D4000200681E08816910419F0249709F03FC0FD
:103D50008CEE94E060E070E00E948119E0901D0616
:103D6000F0901E0600911F0610912006C801B701B1
:103D700020E030E040E050E00E94652D181624F06D
:103D800017FB109517F91095C801B70143E021E220
:103D900036E003E010E0F9E0EF2EF12C0E94A818C5
:103DA00081E296E061E070E00E94811960911D0659
:103DB00070911E0680911F069091200620E030E051
:103DC00040E050E00E94652D18169CF166C082E02C
:103DD0008816910481F58CEE94E060E070E00E941A
:103DE0008119E0901D06F0901E0600911F061091AB
:103DF0002006C801B70120E030E040E050E00E941A
:103E0000652D181624F017FB109517F91095C801A9
:103E1000B70143E021E236E003E010E0E9E0EE2EF6
:103E2000F12C0E94A81881E296E061E070E00E9407
:103E3000811980E033C083E08816910489F58CEE07
:103E400094E060E070E00E948119E0901D06F0901F
:103E50001E0600911F0610912006C801B70120E040
:103E600030E040E050E00E94652D181624F017FB6A
:103E7000109517F91095C801B70143E021E236E02B
:103E800003E010E059E0E52EF12C0E94A81881E231
:103E900096E061E070E00E94811981E00E94701A52
:103EA0000E94580DDF91CF911F910F91FF90EF90DD
:103EB000DF90CF90BF90AF909F908F900895CF9359
:103EC000DF93EC010E94A01AC130D10519F481EFF3
:103ED00094E005C0C230D10549F481E195E061E08C
:103EE00070E00E94811987EF94E010C0C330D105C3
:103EF00019F487E195E0F3CF2497C9F48DE195E0BB
:103F000061E070E00E94811983E295E061E070E079
:103F10000E9481190E948210892B19F083E095E09C
:103F200002C08AE095E061E070E00E948119DF91B3
:103F3000CF9108958FEC94E061E070E00E948119C8
:103F40000E948210892B19F08FE295E002C086E36F
:103F500095E061E070E00E94811980E090E00E94AD
:103F6000291C0E948C0F0E945F0F0E94320F0E943A
:103F7000050F0E9477100E94A9190E94E41A089563
:103F8000089585E10E94F124019731F48EE20E94A8
:103F9000F124892B31F408C08EE20E94F124892B90
:103FA00019F40E94120D08950E94830C089584E173
:103FB0000E94F124019731F486E20E94F124892BBA
:103FC00031F408C086E20E94F124892B19F40E9482
:103FD000EF0C08950E945D0C089583E00E94F12487
:103FE000019731F480E30E94F124892B31F408C059
:103FF00080E30E94F124892B19F40E94CC0C0895CF
:00000001FF
